{
  "abi": [
    {
      "inputs": [],
      "stateMutability": "nonpayable",
      "type": "constructor"
    },
    {
      "inputs": [
        {
          "internalType": "address",
          "name": "collateralToken",
          "type": "address"
        }
      ],
      "name": "InvalidCollateral",
      "type": "error"
    },
    {
      "inputs": [
        {
          "internalType": "uint256",
          "name": "collateralAmount",
          "type": "uint256"
        }
      ],
      "name": "InvalidCollateralAmount",
      "type": "error"
    },
    {
      "inputs": [
        {
          "internalType": "uint256",
          "name": "expiryTime",
          "type": "uint256"
        }
      ],
      "name": "InvalidExpiryTime",
      "type": "error"
    },
    {
      "inputs": [
        {
          "internalType": "bytes32",
          "name": "key",
          "type": "bytes32"
        }
      ],
      "name": "InvalidPosition",
      "type": "error"
    },
    {
      "inputs": [
        {
          "internalType": "bytes32",
          "name": "key",
          "type": "bytes32"
        }
      ],
      "name": "PositionAlreadyCreated",
      "type": "error"
    },
    {
      "inputs": [
        {
          "internalType": "bytes32",
          "name": "key",
          "type": "bytes32"
        }
      ],
      "name": "PositionAlreadyExpired",
      "type": "error"
    },
    {
      "inputs": [
        {
          "internalType": "bytes32",
          "name": "key",
          "type": "bytes32"
        }
      ],
      "name": "PositionAlreadyFilled",
      "type": "error"
    },
    {
      "inputs": [
        {
          "internalType": "bytes32",
          "name": "key",
          "type": "bytes32"
        }
      ],
      "name": "PositionAlreadySettled",
      "type": "error"
    },
    {
      "inputs": [
        {
          "internalType": "address",
          "name": "to",
          "type": "address"
        },
        {
          "internalType": "uint256",
          "name": "amount",
          "type": "uint256"
        }
      ],
      "name": "SafeTransferFailed",
      "type": "error"
    },
    {
      "anonymous": false,
      "inputs": [
        {
          "indexed": true,
          "internalType": "address",
          "name": "previousOwner",
          "type": "address"
        },
        {
          "indexed": true,
          "internalType": "address",
          "name": "newOwner",
          "type": "address"
        }
      ],
      "name": "OwnershipTransferred",
      "type": "event"
    },
    {
      "inputs": [],
      "name": "ANNUAL_RATE",
      "outputs": [
        {
          "internalType": "uint256",
          "name": "",
          "type": "uint256"
        }
      ],
      "stateMutability": "view",
      "type": "function"
    },
    {
      "inputs": [],
      "name": "BASIS_POINTS_DIVISOR",
      "outputs": [
        {
          "internalType": "uint256",
          "name": "",
          "type": "uint256"
        }
      ],
      "stateMutability": "view",
      "type": "function"
    },
    {
      "inputs": [],
      "name": "COLLATERAL_EXPIRY_RATE",
      "outputs": [
        {
          "internalType": "uint256",
          "name": "",
          "type": "uint256"
        }
      ],
      "stateMutability": "view",
      "type": "function"
    },
    {
      "inputs": [],
      "name": "SECONDS_IN_YEAR",
      "outputs": [
        {
          "internalType": "uint256",
          "name": "",
          "type": "uint256"
        }
      ],
      "stateMutability": "view",
      "type": "function"
    },
    {
      "inputs": [
        {
          "internalType": "bytes32",
          "name": "key",
          "type": "bytes32"
        }
      ],
      "name": "amountToPayoff",
      "outputs": [
        {
          "internalType": "uint256",
          "name": "",
          "type": "uint256"
        }
      ],
      "stateMutability": "view",
      "type": "function"
    },
    {
      "inputs": [
        {
          "internalType": "uint256",
          "name": "",
          "type": "uint256"
        }
      ],
      "name": "borrows",
      "outputs": [
        {
          "internalType": "address",
          "name": "",
          "type": "address"
        }
      ],
      "stateMutability": "view",
      "type": "function"
    },
    {
      "inputs": [
        {
          "internalType": "address",
          "name": "_collateralToken",
          "type": "address"
        },
        {
          "internalType": "uint256",
          "name": "_collateralAmount",
          "type": "uint256"
        },
        {
          "internalType": "address",
          "name": "_borrowToken",
          "type": "address"
        },
        {
          "internalType": "uint256",
          "name": "_borrowAmount",
          "type": "uint256"
        },
        {
          "internalType": "uint256",
          "name": "_expiryTime",
          "type": "uint256"
        }
      ],
      "name": "cancel",
      "outputs": [],
      "stateMutability": "nonpayable",
      "type": "function"
    },
    {
      "inputs": [
        {
          "internalType": "address",
          "name": "_borrower",
          "type": "address"
        },
        {
          "internalType": "address",
          "name": "_collateralToken",
          "type": "address"
        },
        {
          "internalType": "uint256",
          "name": "_collateralAmount",
          "type": "uint256"
        },
        {
          "internalType": "address",
          "name": "_borrowToken",
          "type": "address"
        },
        {
          "internalType": "uint256",
          "name": "_borrowAmount",
          "type": "uint256"
        },
        {
          "internalType": "uint256",
          "name": "_expiryTime",
          "type": "uint256"
        }
      ],
      "name": "claim",
      "outputs": [],
      "stateMutability": "nonpayable",
      "type": "function"
    },
    {
      "inputs": [
        {
          "internalType": "address",
          "name": "_collateralToken",
          "type": "address"
        },
        {
          "internalType": "uint256",
          "name": "_collateralAmount",
          "type": "uint256"
        },
        {
          "internalType": "address",
          "name": "_borrowToken",
          "type": "address"
        },
        {
          "internalType": "uint256",
          "name": "_borrowAmount",
          "type": "uint256"
        },
        {
          "internalType": "uint256",
          "name": "_expiryTime",
          "type": "uint256"
        }
      ],
      "name": "create",
      "outputs": [],
      "stateMutability": "nonpayable",
      "type": "function"
    },
    {
      "inputs": [],
      "name": "fetchAllPositions",
      "outputs": [
        {
          "components": [
            {
              "internalType": "address",
              "name": "borrower",
              "type": "address"
            },
            {
              "internalType": "address",
              "name": "lender",
              "type": "address"
            },
            {
              "internalType": "bool",
              "name": "isActive",
              "type": "bool"
            },
            {
              "internalType": "bool",
              "name": "isFilled",
              "type": "bool"
            },
            {
              "internalType": "bool",
              "name": "isSettled",
              "type": "bool"
            },
            {
              "internalType": "address",
              "name": "collateral",
              "type": "address"
            },
            {
              "internalType": "uint256",
              "name": "collateralAmount",
              "type": "uint256"
            },
            {
              "internalType": "address",
              "name": "borrowToken",
              "type": "address"
            },
            {
              "internalType": "uint256",
              "name": "borrowAmount",
              "type": "uint256"
            },
            {
              "internalType": "uint256",
              "name": "startTime",
              "type": "uint256"
            },
            {
              "internalType": "uint256",
              "name": "expiryTime",
              "type": "uint256"
            }
          ],
          "internalType": "struct Pool.Loan[]",
          "name": "",
          "type": "tuple[]"
        }
      ],
      "stateMutability": "view",
      "type": "function"
    },
    {
      "inputs": [
        {
          "internalType": "address",
          "name": "_borrower",
          "type": "address"
        },
        {
          "internalType": "address",
          "name": "_collateralToken",
          "type": "address"
        },
        {
          "internalType": "uint256",
          "name": "_collateralAmount",
          "type": "uint256"
        },
        {
          "internalType": "address",
          "name": "_borrowToken",
          "type": "address"
        },
        {
          "internalType": "uint256",
          "name": "_borrowAmount",
          "type": "uint256"
        },
        {
          "internalType": "uint256",
          "name": "_expiryTime",
          "type": "uint256"
        }
      ],
      "name": "fill",
      "outputs": [],
      "stateMutability": "nonpayable",
      "type": "function"
    },
    {
      "inputs": [
        {
          "internalType": "address",
          "name": "_account",
          "type": "address"
        },
        {
          "internalType": "address",
          "name": "_collateralToken",
          "type": "address"
        },
        {
          "internalType": "uint256",
          "name": "_collateralAmount",
          "type": "uint256"
        },
        {
          "internalType": "address",
          "name": "_borrowToken",
          "type": "address"
        },
        {
          "internalType": "uint256",
          "name": "_borrowAmount",
          "type": "uint256"
        },
        {
          "internalType": "uint256",
          "name": "_expiryTime",
          "type": "uint256"
        }
      ],
      "name": "getPositionKey",
      "outputs": [
        {
          "internalType": "bytes32",
          "name": "",
          "type": "bytes32"
        }
      ],
      "stateMutability": "pure",
      "type": "function"
    },
    {
      "inputs": [],
      "name": "numBorrows",
      "outputs": [
        {
          "internalType": "uint256",
          "name": "",
          "type": "uint256"
        }
      ],
      "stateMutability": "view",
      "type": "function"
    },
    {
      "inputs": [],
      "name": "owner",
      "outputs": [
        {
          "internalType": "address",
          "name": "",
          "type": "address"
        }
      ],
      "stateMutability": "view",
      "type": "function"
    },
    {
      "inputs": [
        {
          "internalType": "uint256",
          "name": "",
          "type": "uint256"
        }
      ],
      "name": "positionIds",
      "outputs": [
        {
          "internalType": "bytes32",
          "name": "",
          "type": "bytes32"
        }
      ],
      "stateMutability": "view",
      "type": "function"
    },
    {
      "inputs": [
        {
          "internalType": "bytes32",
          "name": "",
          "type": "bytes32"
        }
      ],
      "name": "positions",
      "outputs": [
        {
          "internalType": "address",
          "name": "borrower",
          "type": "address"
        },
        {
          "internalType": "address",
          "name": "lender",
          "type": "address"
        },
        {
          "internalType": "bool",
          "name": "isActive",
          "type": "bool"
        },
        {
          "internalType": "bool",
          "name": "isFilled",
          "type": "bool"
        },
        {
          "internalType": "bool",
          "name": "isSettled",
          "type": "bool"
        },
        {
          "internalType": "address",
          "name": "collateral",
          "type": "address"
        },
        {
          "internalType": "uint256",
          "name": "collateralAmount",
          "type": "uint256"
        },
        {
          "internalType": "address",
          "name": "borrowToken",
          "type": "address"
        },
        {
          "internalType": "uint256",
          "name": "borrowAmount",
          "type": "uint256"
        },
        {
          "internalType": "uint256",
          "name": "startTime",
          "type": "uint256"
        },
        {
          "internalType": "uint256",
          "name": "expiryTime",
          "type": "uint256"
        }
      ],
      "stateMutability": "view",
      "type": "function"
    },
    {
      "inputs": [],
      "name": "renounceOwnership",
      "outputs": [],
      "stateMutability": "nonpayable",
      "type": "function"
    },
    {
      "inputs": [
        {
          "internalType": "address",
          "name": "_borrower",
          "type": "address"
        },
        {
          "internalType": "address",
          "name": "_collateralToken",
          "type": "address"
        },
        {
          "internalType": "uint256",
          "name": "_collateralAmount",
          "type": "uint256"
        },
        {
          "internalType": "address",
          "name": "_borrowToken",
          "type": "address"
        },
        {
          "internalType": "uint256",
          "name": "_borrowAmount",
          "type": "uint256"
        },
        {
          "internalType": "uint256",
          "name": "_expiryTime",
          "type": "uint256"
        }
      ],
      "name": "repay",
      "outputs": [],
      "stateMutability": "nonpayable",
      "type": "function"
    },
    {
      "inputs": [
        {
          "internalType": "address",
          "name": "newOwner",
          "type": "address"
        }
      ],
      "name": "transferOwnership",
      "outputs": [],
      "stateMutability": "nonpayable",
      "type": "function"
    }
  ],
  "bytecode": {
    "object": "0x60806040526107d060015534801561001657600080fd5b5061002033610025565b610075565b600080546001600160a01b038381166001600160a01b0319831681178455604051919092169283917f8be0079c531659141344cd1fd0a4f28419497f9722a3daafe3b4186f6b6457e09190a35050565b6114f0806100846000396000f3fe608060405234801561001057600080fd5b50600436106101215760003560e01c8063514ea4bf116100ad57806390436177116100715780639043617714610311578063939c5f7a1461031a578063dbbb3f751461032d578063e6f71fbf14610340578063f2fde38b1461034957600080fd5b8063514ea4bf146101ec57806353ecc533146102da5780635dcc9391146102ed578063715018a6146102f85780638da5cb5b1461030057600080fd5b806328ba2f50116100f457806328ba2f501461019557806328fc1ad0146101a85780633672886e146101bd5780634078503d146101d05780634cabd3aa146101e357600080fd5b8063126082cf14610126578063156dda6d14610142578063191e9d7c1461015557806323d860bf14610180575b600080fd5b61012f61271081565b6040519081526020015b60405180910390f35b61012f6101503660046111a8565b61035c565b610168610163366004611207565b6103c2565b6040516001600160a01b039091168152602001610139565b61019361018e366004611220565b6103ec565b005b6101936101a33660046111a8565b6105ab565b6101b06106e9565b604051610139919061126e565b6101936101cb3660046111a8565b6108b0565b61012f6101de366004611207565b6109ea565b61012f60055481565b61026e6101fa366004611207565b6002602081905260009182526040909120805460018201549282015460038301546004840154600585015460068601546007909601546001600160a01b03958616978087169760ff600160a01b8304811698600160a81b8404821698600160b01b909404909116969281169592949216928b565b604080516001600160a01b039c8d1681529a8c1660208c0152981515988a01989098529515156060890152931515608088015291871660a087015260c086015290941660e084015261010083019390935261012082019290925261014081019190915261016001610139565b6101936102e83660046111a8565b610aa7565b61012f6301e1338081565b610193610be3565b6000546001600160a01b0316610168565b61012f614e2081565b61012f610328366004611207565b610bf7565b61019361033b366004611220565b610c18565b61012f60015481565b610193610357366004611334565b610d61565b604080516bffffffffffffffffffffffff19606098891b811660208084019190915297891b8116603483015260488201969096529390961b9093166068830152607c820152609c808201929092528351808203909201825260bc01909252815191012090565b600481815481106103d257600080fd5b6000918252602090912001546001600160a01b0316905081565b8484828160000361041857604051631686460160e21b8152600481018390526024015b60405180910390fd5b8060000361043c576040516307dc928360e31b81526004810182905260240161040f565b600061044c338a8a8a8a8a61035c565b600081815260026020819052604090912001549091506001600160a01b03161561048c57604051630e683bc560e31b81526004810182905260240161040f565b6000600260008381526020019081526020016000209050338160000160006101000a8154816001600160a01b0302191690836001600160a01b0316021790555060018160010160146101000a81548160ff021916908315150217905550898160020160006101000a8154816001600160a01b0302191690836001600160a01b03160217905550888160030181905550878160040160006101000a8154816001600160a01b0302191690836001600160a01b03160217905550868160050181905550858160070181905550600382908060018154018082558091505060019003906000526020600020016000909190919091505561059f33308b8d6001600160a01b0316610dda909392919063ffffffff16565b50505050505050505050565b60006105bb87878787878761035c565b600081815260026020819052604090912001549091506001600160a01b03166105fa57604051638ea9158f60e01b81526004810182905260240161040f565b600081815260026020526040902060010154600160b01b900460ff16156106375760405163c4ee240b60e01b81526004810182905260240161040f565b600081815260026020819052604090912060018101805460ff60b01b198116600160b01b1790915560038201549190920154610681926001600160a01b0391821692911690610e4b565b6000908152600260208190526040822080546001600160a01b031990811682556001820180546001600160b81b031916905591810180548316905560038101839055600481018054909216909155600581018290556006810182905560070155505050505050565b60035460609060009067ffffffffffffffff81111561070a5761070a61134f565b60405190808252806020026020018201604052801561079157816020015b604080516101608101825260008082526020808301829052928201819052606082018190526080820181905260a0820181905260c0820181905260e082018190526101008201819052610120820181905261014082015282526000199092019101816107285790505b50905060005b6003548110156108aa5760026000600383815481106107b8576107b8611365565b60009182526020808320909101548352828101939093526040918201902081516101608101835281546001600160a01b03908116825260018301548082169583019590955260ff600160a01b86048116151594830194909452600160a81b8504841615156060830152600160b01b909404909216151560808301526002810154831660a0830152600381015460c0830152600481015490921660e082015260058201546101008201526006820154610120820152600790910154610140820152825183908390811061088c5761088c611365565b602002602001018190525080806108a290611391565b915050610797565b50919050565b60006108c087878787878761035c565b600081815260026020819052604090912001549091506001600160a01b03166108ff57604051638ea9158f60e01b81526004810182905260240161040f565b600081815260026020526040902060010154600160b01b900460ff161561093c5760405163c4ee240b60e01b81526004810182905260240161040f565b6000610947826109ea565b905061095e6001600160a01b038616333084610dda565b600082815260026020526040902060010154610987906001600160a01b03878116911683610e4b565b6000828152600260205260409020600301546109af906001600160a01b038916908a90610e4b565b50600090815260026020526040902080546001600160a01b03191633178155600101805460ff60b01b1916600160b01b179055505050505050565b60015460008281526002602052604081206006015490918291610a0d90426113aa565b610a1791906113c3565b600084815260026020526040902060050154610a3391906113da565b600084815260026020526040902060070154909150421115610a8657600083815260026020526040902060070154614e2090610a6f90426113aa565b610a7991906113c3565b610a8390826113da565b90505b610a966127106301e133806113c3565b610aa090826113ed565b9392505050565b6000610ab787878787878761035c565b600081815260026020819052604090912001549091506001600160a01b0316610af657604051638ea9158f60e01b81526004810182905260240161040f565b600081815260026020526040902060010154600160a01b900460ff16610b32576040516316e13d9360e11b81526004810182905260240161040f565b600081815260026020526040902060070154421115610b67576040516379fa49e160e01b81526004810182905260240161040f565b600081815260026020526040902060050154610b8e6001600160a01b038616333084610dda565b610ba26001600160a01b0386168983610e4b565b50600090815260026020526040902060018101805460ff60a01b1933166001600160a81b031990911617600160a01b17905542600690910155505050505050565b610beb610e80565b610bf56000610eda565b565b60038181548110610c0757600080fd5b600091825260209091200154905081565b6000610c2833878787878761035c565b6000818152600260208190526040822080546001600160a01b031990811682556001820180546001600160b81b03191690559181018054831690556003810183905560048101805490921690915560058101829055600681018290556007018190559091505b600354811015610d44578160038281548110610cac57610cac611365565b906000526020600020015403610d325760038054610ccc906001906113aa565b81548110610cdc57610cdc611365565b906000526020600020015460038281548110610cfa57610cfa611365565b6000918252602090912001556003805480610d1757610d1761140f565b60019003818190600052602060002001600090559055610d44565b80610d3c81611391565b915050610c8e565b50610d596001600160a01b0387163387610e4b565b505050505050565b610d69610e80565b6001600160a01b038116610dce5760405162461bcd60e51b815260206004820152602660248201527f4f776e61626c653a206e6577206f776e657220697320746865207a65726f206160448201526564647265737360d01b606482015260840161040f565b610dd781610eda565b50565b6040516001600160a01b0380851660248301528316604482015260648101829052610e459085906323b872dd60e01b906084015b60408051601f198184030181529190526020810180516001600160e01b03166001600160e01b031990931692909217909152610f2a565b50505050565b6040516001600160a01b038316602482015260448101829052610e7b90849063a9059cbb60e01b90606401610e0e565b505050565b6000546001600160a01b03163314610bf55760405162461bcd60e51b815260206004820181905260248201527f4f776e61626c653a2063616c6c6572206973206e6f7420746865206f776e6572604482015260640161040f565b600080546001600160a01b038381166001600160a01b0319831681178455604051919092169283917f8be0079c531659141344cd1fd0a4f28419497f9722a3daafe3b4186f6b6457e09190a35050565b6000610f7f826040518060400160405280602081526020017f5361666545524332303a206c6f772d6c6576656c2063616c6c206661696c6564815250856001600160a01b0316610ffc9092919063ffffffff16565b805190915015610e7b5780806020019051810190610f9d9190611425565b610e7b5760405162461bcd60e51b815260206004820152602a60248201527f5361666545524332303a204552433230206f7065726174696f6e20646964206e6044820152691bdd081cdd58d8d9595960b21b606482015260840161040f565b606061100b8484600085611013565b949350505050565b6060824710156110745760405162461bcd60e51b815260206004820152602660248201527f416464726573733a20696e73756666696369656e742062616c616e636520666f6044820152651c8818d85b1b60d21b606482015260840161040f565b600080866001600160a01b03168587604051611090919061146b565b60006040518083038185875af1925050503d80600081146110cd576040519150601f19603f3d011682016040523d82523d6000602084013e6110d2565b606091505b50915091506110e3878383876110ee565b979650505050505050565b6060831561115d578251600003611156576001600160a01b0385163b6111565760405162461bcd60e51b815260206004820152601d60248201527f416464726573733a2063616c6c20746f206e6f6e2d636f6e7472616374000000604482015260640161040f565b508161100b565b61100b83838151156111725781518083602001fd5b8060405162461bcd60e51b815260040161040f9190611487565b80356001600160a01b03811681146111a357600080fd5b919050565b60008060008060008060c087890312156111c157600080fd5b6111ca8761118c565b95506111d86020880161118c565b9450604087013593506111ed6060880161118c565b92506080870135915060a087013590509295509295509295565b60006020828403121561121957600080fd5b5035919050565b600080600080600060a0868803121561123857600080fd5b6112418661118c565b9450602086013593506112566040870161118c565b94979396509394606081013594506080013592915050565b602080825282518282018190526000919060409081850190868401855b8281101561132757815180516001600160a01b039081168652878201518116888701528682015115158787015260608083015115159087015260808083015115159087015260a08083015182169087015260c0808301519087015260e08083015190911690860152610100808201519086015261012080820151908601526101409081015190850152610160909301929085019060010161128b565b5091979650505050505050565b60006020828403121561134657600080fd5b610aa08261118c565b634e487b7160e01b600052604160045260246000fd5b634e487b7160e01b600052603260045260246000fd5b634e487b7160e01b600052601160045260246000fd5b6000600182016113a3576113a361137b565b5060010190565b818103818111156113bd576113bd61137b565b92915050565b80820281158282048414176113bd576113bd61137b565b808201808211156113bd576113bd61137b565b60008261140a57634e487b7160e01b600052601260045260246000fd5b500490565b634e487b7160e01b600052603160045260246000fd5b60006020828403121561143757600080fd5b81518015158114610aa057600080fd5b60005b8381101561146257818101518382015260200161144a565b50506000910152565b6000825161147d818460208701611447565b9190910192915050565b60208152600082518060208401526114a6816040850160208701611447565b601f01601f1916919091016040019291505056fea2646970667358221220e4bfcd7741db1a563cac1fc38e97671a7265259326528b5db8a43c40c2d1f70b64736f6c63430008110033",
    "linkReferences": {}
  },
  "methodIdentifiers": {
    "ANNUAL_RATE()": "e6f71fbf",
    "BASIS_POINTS_DIVISOR()": "126082cf",
    "COLLATERAL_EXPIRY_RATE()": "90436177",
    "SECONDS_IN_YEAR()": "5dcc9391",
    "amountToPayoff(bytes32)": "4078503d",
    "borrows(uint256)": "191e9d7c",
    "cancel(address,uint256,address,uint256,uint256)": "dbbb3f75",
    "claim(address,address,uint256,address,uint256,uint256)": "28ba2f50",
    "create(address,uint256,address,uint256,uint256)": "23d860bf",
    "fetchAllPositions()": "28fc1ad0",
    "fill(address,address,uint256,address,uint256,uint256)": "53ecc533",
    "getPositionKey(address,address,uint256,address,uint256,uint256)": "156dda6d",
    "numBorrows()": "4cabd3aa",
    "owner()": "8da5cb5b",
    "positionIds(uint256)": "939c5f7a",
    "positions(bytes32)": "514ea4bf",
    "renounceOwnership()": "715018a6",
    "repay(address,address,uint256,address,uint256,uint256)": "3672886e",
    "transferOwnership(address)": "f2fde38b"
  },
  "id": 2
}