{
  "abi": [
    {
      "inputs": [
        {
          "internalType": "uint256",
          "name": "total",
          "type": "uint256"
        },
        {
          "internalType": "string",
          "name": "_name",
          "type": "string"
        },
        {
          "internalType": "string",
          "name": "_symbol",
          "type": "string"
        },
        {
          "internalType": "uint8",
          "name": "_decimals",
          "type": "uint8"
        }
      ],
      "stateMutability": "nonpayable",
      "type": "constructor"
    },
    {
      "anonymous": false,
      "inputs": [
        {
          "indexed": true,
          "internalType": "address",
          "name": "tokenOwner",
          "type": "address"
        },
        {
          "indexed": true,
          "internalType": "address",
          "name": "spender",
          "type": "address"
        },
        {
          "indexed": false,
          "internalType": "uint256",
          "name": "tokens",
          "type": "uint256"
        }
      ],
      "name": "Approval",
      "type": "event"
    },
    {
      "anonymous": false,
      "inputs": [
        {
          "indexed": true,
          "internalType": "address",
          "name": "from",
          "type": "address"
        },
        {
          "indexed": true,
          "internalType": "address",
          "name": "to",
          "type": "address"
        },
        {
          "indexed": false,
          "internalType": "uint256",
          "name": "tokens",
          "type": "uint256"
        }
      ],
      "name": "Transfer",
      "type": "event"
    },
    {
      "inputs": [
        {
          "internalType": "address",
          "name": "owner",
          "type": "address"
        },
        {
          "internalType": "address",
          "name": "delegate",
          "type": "address"
        }
      ],
      "name": "allowance",
      "outputs": [
        {
          "internalType": "uint256",
          "name": "",
          "type": "uint256"
        }
      ],
      "stateMutability": "view",
      "type": "function"
    },
    {
      "inputs": [
        {
          "internalType": "address",
          "name": "delegate",
          "type": "address"
        },
        {
          "internalType": "uint256",
          "name": "numTokens",
          "type": "uint256"
        }
      ],
      "name": "approve",
      "outputs": [
        {
          "internalType": "bool",
          "name": "",
          "type": "bool"
        }
      ],
      "stateMutability": "nonpayable",
      "type": "function"
    },
    {
      "inputs": [
        {
          "internalType": "address",
          "name": "tokenOwner",
          "type": "address"
        }
      ],
      "name": "balanceOf",
      "outputs": [
        {
          "internalType": "uint256",
          "name": "",
          "type": "uint256"
        }
      ],
      "stateMutability": "view",
      "type": "function"
    },
    {
      "inputs": [],
      "name": "decimals",
      "outputs": [
        {
          "internalType": "uint8",
          "name": "",
          "type": "uint8"
        }
      ],
      "stateMutability": "view",
      "type": "function"
    },
    {
      "inputs": [
        {
          "internalType": "address",
          "name": "to",
          "type": "address"
        },
        {
          "internalType": "uint256",
          "name": "numTokens",
          "type": "uint256"
        }
      ],
      "name": "mint",
      "outputs": [],
      "stateMutability": "nonpayable",
      "type": "function"
    },
    {
      "inputs": [
        {
          "internalType": "address",
          "name": "to",
          "type": "address"
        }
      ],
      "name": "mint100",
      "outputs": [],
      "stateMutability": "nonpayable",
      "type": "function"
    },
    {
      "inputs": [],
      "name": "name",
      "outputs": [
        {
          "internalType": "string",
          "name": "",
          "type": "string"
        }
      ],
      "stateMutability": "view",
      "type": "function"
    },
    {
      "inputs": [],
      "name": "symbol",
      "outputs": [
        {
          "internalType": "string",
          "name": "",
          "type": "string"
        }
      ],
      "stateMutability": "view",
      "type": "function"
    },
    {
      "inputs": [],
      "name": "totalSupply",
      "outputs": [
        {
          "internalType": "uint256",
          "name": "",
          "type": "uint256"
        }
      ],
      "stateMutability": "view",
      "type": "function"
    },
    {
      "inputs": [
        {
          "internalType": "address",
          "name": "receiver",
          "type": "address"
        },
        {
          "internalType": "uint256",
          "name": "numTokens",
          "type": "uint256"
        }
      ],
      "name": "transfer",
      "outputs": [
        {
          "internalType": "bool",
          "name": "",
          "type": "bool"
        }
      ],
      "stateMutability": "nonpayable",
      "type": "function"
    },
    {
      "inputs": [
        {
          "internalType": "address",
          "name": "owner",
          "type": "address"
        },
        {
          "internalType": "address",
          "name": "buyer",
          "type": "address"
        },
        {
          "internalType": "uint256",
          "name": "numTokens",
          "type": "uint256"
        }
      ],
      "name": "transferFrom",
      "outputs": [
        {
          "internalType": "bool",
          "name": "",
          "type": "bool"
        }
      ],
      "stateMutability": "nonpayable",
      "type": "function"
    }
  ],
  "bytecode": {
    "object": "0x60c0604052600a6080908152694552433230426173696360b01b60a0526000906200002b90826200018a565b506040805180820190915260048152635553444360e01b60208201526001906200005690826200018a565b506002805460ff191660061790553480156200007157600080fd5b5060405162000b4038038062000b40833981016040819052620000949162000305565b6005849055336000908152600360205260408120859055620000b784826200018a565b506001620000c683826200018a565b506002805460ff191660ff929092169190911790555062000393915050565b634e487b7160e01b600052604160045260246000fd5b600181811c908216806200011057607f821691505b6020821081036200013157634e487b7160e01b600052602260045260246000fd5b50919050565b601f8211156200018557600081815260208120601f850160051c81016020861015620001605750805b601f850160051c820191505b8181101562000181578281556001016200016c565b5050505b505050565b81516001600160401b03811115620001a657620001a6620000e5565b620001be81620001b78454620000fb565b8462000137565b602080601f831160018114620001f65760008415620001dd5750858301515b600019600386901b1c1916600185901b17855562000181565b600085815260208120601f198616915b82811015620002275788860151825594840194600190910190840162000206565b5085821015620002465787850151600019600388901b60f8161c191681555b5050505050600190811b01905550565b600082601f8301126200026857600080fd5b81516001600160401b0380821115620002855762000285620000e5565b604051601f8301601f19908116603f01168101908282118183101715620002b057620002b0620000e5565b81604052838152602092508683858801011115620002cd57600080fd5b600091505b83821015620002f15785820183015181830184015290820190620002d2565b600093810190920192909252949350505050565b600080600080608085870312156200031c57600080fd5b845160208601519094506001600160401b03808211156200033c57600080fd5b6200034a8883890162000256565b945060408701519150808211156200036157600080fd5b50620003708782880162000256565b925050606085015160ff811681146200038857600080fd5b939692955090935050565b61079d80620003a36000396000f3fe608060405234801561001057600080fd5b50600436106100a95760003560e01c8063313ce56711610071578063313ce5671461012957806340c10f191461014857806370a082311461015b57806395d89b4114610184578063a9059cbb1461018c578063dd62ed3e1461019f57600080fd5b806306fdde03146100ae578063095ea7b3146100cc57806315a80afe146100ef57806318160ddd1461010457806323b872dd14610116575b600080fd5b6100b66101d8565b6040516100c391906105bd565b60405180910390f35b6100df6100da366004610627565b610266565b60405190151581526020016100c3565b6101026100fd366004610651565b6102d3565b005b6005545b6040519081526020016100c3565b6100df61012436600461066c565b61031e565b6002546101369060ff1681565b60405160ff90911681526020016100c3565b610102610156366004610627565b610471565b610108610169366004610651565b6001600160a01b031660009081526003602052604090205490565b6100b66104bb565b6100df61019a366004610627565b6104c8565b6101086101ad3660046106a8565b6001600160a01b03918216600090815260046020908152604080832093909416825291909152205490565b600080546101e5906106db565b80601f0160208091040260200160405190810160405280929190818152602001828054610211906106db565b801561025e5780601f106102335761010080835404028352916020019161025e565b820191906000526020600020905b81548152906001019060200180831161024157829003601f168201915b505050505081565b3360008181526004602090815260408083206001600160a01b038716808552925280832085905551919290917f8c5be1e5ebec7d5bd14f71427d1e84f3dd0314c0f7b2291e5b200ac8c7c3b925906102c19086815260200190565b60405180910390a35060015b92915050565b6001600160a01b03811660009081526003602052604081208054606492906102fc90849061072b565b92505081905550606460056000828254610316919061072b565b909155505050565b6001600160a01b03831660009081526003602052604081205482111561034357600080fd5b6001600160a01b038416600090815260046020908152604080832033845290915290205482111561037357600080fd5b6001600160a01b038416600090815260036020526040902054610396908361057b565b6001600160a01b03851660009081526003602090815260408083209390935560048152828220338352905220546103cd908361057b565b6001600160a01b03808616600090815260046020908152604080832033845282528083209490945591861681526003909152205461040b908361059e565b6001600160a01b0380851660008181526003602052604090819020939093559151908616907fddf252ad1be2c89b69c2b068fc378daa952ba7f163c4a11628f55a4df523b3ef9061045f9086815260200190565b60405180910390a35060019392505050565b6001600160a01b0382166000908152600360205260408120805483929061049990849061072b565b9250508190555080600560008282546104b2919061072b565b90915550505050565b600180546101e5906106db565b336000908152600360205260408120548211156104e457600080fd5b336000908152600360205260409020546104fe908361057b565b33600090815260036020526040808220929092556001600160a01b0385168152205461052a908361059e565b6001600160a01b0384166000818152600360205260409081902092909255905133907fddf252ad1be2c89b69c2b068fc378daa952ba7f163c4a11628f55a4df523b3ef906102c19086815260200190565b60008282111561058d5761058d61073e565b6105978284610754565b9392505050565b6000806105ab838561072b565b9050838110156105975761059761073e565b600060208083528351808285015260005b818110156105ea578581018301518582016040015282016105ce565b506000604082860101526040601f19601f8301168501019250505092915050565b80356001600160a01b038116811461062257600080fd5b919050565b6000806040838503121561063a57600080fd5b6106438361060b565b946020939093013593505050565b60006020828403121561066357600080fd5b6105978261060b565b60008060006060848603121561068157600080fd5b61068a8461060b565b92506106986020850161060b565b9150604084013590509250925092565b600080604083850312156106bb57600080fd5b6106c48361060b565b91506106d26020840161060b565b90509250929050565b600181811c908216806106ef57607f821691505b60208210810361070f57634e487b7160e01b600052602260045260246000fd5b50919050565b634e487b7160e01b600052601160045260246000fd5b808201808211156102cd576102cd610715565b634e487b7160e01b600052600160045260246000fd5b818103818111156102cd576102cd61071556fea26469706673582212205f838e992bc54d90dd1db8afa0d6c02e847c1c574ac44b638cde509f89247f9b64736f6c63430008110033",
    "linkReferences": {}
  },
  "methodIdentifiers": {
    "allowance(address,address)": "dd62ed3e",
    "approve(address,uint256)": "095ea7b3",
    "balanceOf(address)": "70a08231",
    "decimals()": "313ce567",
    "mint(address,uint256)": "40c10f19",
    "mint100(address)": "15a80afe",
    "name()": "06fdde03",
    "symbol()": "95d89b41",
    "totalSupply()": "18160ddd",
    "transfer(address,uint256)": "a9059cbb",
    "transferFrom(address,address,uint256)": "23b872dd"
  },
  "id": 0
}